:1000000000800020950100000D1700000D17000072
:100010000D1700000D1700000D1700000D17000050
:100020000D1700000D1700000D1700000D17000040
:100030000D1700000D1700000D1700000D17000030
:100040000D1700000D1700000D1700000D17000020
:100050000D1700000D1700000D1700000D17000010
:100060000D1700000D1700000D1700000D17000000
:100070000D1700000D1700000D1700000D170000F0
:100080000D1700000D1700000D1700000D170000E0
:100090000D1700000D1700000D1700000D170000D0
:1000A0000D1700000D1700000D1700000D170000C0
:1000B0000D1700000D1700000D1700000D170000B0
:1000C00080B51448144B21E05C689968DD688C4267
:1000D0000CD0002205E0A6180832D6E9008941E9D3
:1000E00002898C460831AA42F5D101E004EB050CE7
:1000F0001C696146002204E008320026002741E91D
:1001000002670831A242F7D1143301380028DBD14D
:1001100001F0E4FA01000000B017000048F21813E3
:10012000C1F6FF731A780AB901201870704700BF32
:1001300048F20010C1F6FF7008B503682BB140F219
:100140000003C0F2000303B1984708BD80B500AFBB
:1001500000F080F800F07EF800F090F800F00CFC61
:1001600062B648F22813C1F6FF734FF0FF329A705F
:1001700048F22813C1F6FF734FF0FF32DA704FF0E8
:1001800004004FF0020148F22812C1F6FF7200F09D
:1001900093F8FEE7054B1C7844F001041C70044BF7
:1001A0001A78D2B2034B1A70FFF78AFFE846004074
:1001B000F8460040BC76004080B582B000AF4EF6F5
:1001C0000C53CEF2000340F20042C0F2FA521A6021
:1001D0004EF61453CEF200034EF61452CEF2000245
:1001E000126842F400721A604FF000037B6014E062
:1001F0007A687B684FEA830140F20003C0F2000393
:100200000B441B68194648F20003C1F6FF7343F81C
:1002100022107B6803F101037B607B682F2BE7D9F9
:1002200047F2BC63C4F200031B78DAB248F23D1314
:10023000C1F6FF731A704EF60853CEF2000348F26F
:100240000002C1F6FF721A6000F0A2FF07F1080772
:10025000BD4680BD80B400AF44F2A233C4F20003B7
:1002600044F2A232C4F200021278D2B242F0010289
:10027000D2B21A70BD4680BC704700BF80B500AFD7
:1002800048F21913C1F6FF731B78002B08D100F058
:1002900043F848F21913C1F6FF734FF001021A70C8
:1002A00000F0CEF880BD00BF80B500AF4FF0000079
:1002B00000F094FD80BD00BF80B483B000AF0B465A
:1002C0003A600246FA80BB803A6848F23813C1F6B9
:1002D000FF731A6048F23C13C1F6FF734FF000023F
:1002E0001A7048F23213C1F6FF734FF000021A7011
:1002F000FB88DAB248F23013C1F6FF731A70BB887C
:10030000DAB248F23313C1F6FF731A7007F10C0723
:10031000BD4680BC704700BF80B483B000AF44F6D8
:10032000D713C4F200034FF000021A7044F6D6133C
:10033000C4F2000344F6D612C4F200021278D2B21C
:1003400042F00102D2B21A7044F6DB13C4F2000389
:100350004FF004021A704FF00003FB7111E0FB79BB
:100360004FF0010202FA03F30E2B06D944F6DB1319
:10037000C4F20003FA791A7006E0FB7903F1010375
:10038000FB71FB79062BEAD944F6D613C4F20003BD
:1003900044F6D612C4F200021278D2B242F004023D
:1003A000D2B21A7044F6CA13C4F200034FF0080226
:1003B0001A7044F6C813C4F2000344F6C812C4F21B
:1003C00000021278D2B242F00102D2B21A7048F2A0
:1003D0003813C1F6FF734FF000021A6048F23C1365
:1003E000C1F6FF734FF000021A7048F23213C1F6E3
:1003F000FF734FF000021A7048F23313C1F6FF7317
:100400004FF000021A7048F23013C1F6FF734FF03C
:1004100000021A7044F6C813C4F2000344F6C8126E
:10042000C4F200021278D2B26FEA42626FEA5262FC
:10043000D2B21A7007F10C07BD4680BC704700BFEE
:1004400080B582B000AF00F01BFC0346FB7144F2A4
:10045000A533C4F2000344F2A532C4F200021278BC
:10046000D2B242F00402D2B21A7044F2B533C4F2EE
:10047000000344F2B532C4F200021278D2B242F064
:100480000402D2B21A70FB79184600F0FDFB4FF05F
:1004900000004FF0070100F073FC4FF0000040F245
:1004A000DD41C0F2000100F037FC4FF0000000F029
:1004B000B9FC48F23113C1F6FF734FF000021A7015
:1004C00048F23413C1F6FF734FF000021A70FFF7C1
:1004D000EBFE07F10807BD4680BD00BF80B400AF4A
:1004E00044F6D713C4F200031B78DAB248F21A13A9
:1004F000C1F6FF731A7048F21A13C1F6FF731B7826
:1005000003F00803002B7ED044F6D813C4F2000396
:100510001B78DBB203F00103DBB2002B48D044F6BA
:10052000D813C4F2000348F23812C1F6FF72116802
:1005300048F23C12C1F6FF721278D2B20A44127825
:10054000D2B21A7044F6D713C4F200034FF014026B
:100550001A7048F23C13C1F6FF731B78DAB248F206
:100560003213C1F6FF731A7048F23213C1F6FF73EB
:100570001B78DBB203F10103DAB248F23213C1F6A1
:10058000FF731A7048F23413C1F6FF731B78DBB2A5
:1005900043F01103DAB248F23413C1F6FF731A7054
:1005A00048F23113C1F6FF734FF008021A705EE192
:1005B00044F6D713C4F200034FF010021A7048F249
:1005C0003413C1F6FF731B78DBB243F01203DAB2C7
:1005D00048F23413C1F6FF731A7048F23113C1F6B2
:1005E000FF734FF001021A7044F6D613C4F20003F1
:1005F00044F6D612C4F200021278D2B242F01002CF
:10060000D2B21A7033E148F21A13C1F6FF731B78A5
:1006100003F00103DBB2002B00F0298148F2311313
:10062000C1F6FF731B78DBB2042B48D0082B00F017
:100630008F80012B40F0FF8044F6D813C4F20003F2
:100640001B78DAB248F21B13C1F6FF731A7048F236
:100650001B13C1F6FF731A7848F23013C1F6FF730B
:100660001B78DBB29A4222D244F6D713C4F20003BD
:100670004FF010021A7048F21B13C1F6FF731A787C
:1006800048F23C13C1F6FF731A7048F21B13C1F60F
:10069000FF731A7848F23213C1F6FF731A7048F2EA
:1006A0003113C1F6FF734FF004021A70DFE044F615
:1006B000D713C4F200034FF000021A70D7E048F2DB
:1006C0003213C1F6FF731B78DAB248F23313C1F666
:1006D000FF731B78DBB29A4232D244F6D813C4F2CD
:1006E00000031B78DAB248F21B13C1F6FF731A70CD
:1006F00044F6D713C4F200034FF010021A7048F208
:100700003813C1F6FF731A6848F23213C1F6FF734B
:100710001B78DBB21A4448F21B13C1F6FF731B7837
:10072000137048F23213C1F6FF731B78DBB203F18A
:100730000103DAB248F23213C1F6FF731A7096E081
:1007400044F6D713C4F200034FF000021A708EE093
:1007500048F23213C1F6FF731B78DAB248F2301355
:10076000C1F6FF731B78DBB29A4255D248F21A13D6
:10077000C1F6FF731B7803F00203002B28D144F667
:10078000D813C4F2000348F23812C1F6FF721168A0
:1007900048F23212C1F6FF721278D2B20A441278CD
:1007A000D2B21A7044F6D713C4F200034FF0040219
:1007B0001A7048F23213C1F6FF731B78DBB203F1F3
:1007C0000103DAB248F23213C1F6FF731A704EE039
:1007D00044F6D813C4F200034FF0FF321A7044F607
:1007E000D713C4F200034FF000021A7048F234131A
:1007F000C1F6FF731B78DBB21A4602F0EF0248F233
:100800003413C1F6FF731A7048F23113C1F6FF7347
:100810004FF000021A702AE044F6D813C4F2000325
:100820004FF0FF321A7044F6D713C4F200034FF0B2
:1008300004021A701BE048F23113C1F6FF734FF047
:1008400000021A7048F23C13C1F6FF734FF0000229
:100850001A7048F23213C1F6FF734FF000021A709B
:1008600044F6D713C4F200034FF000021A7044F6A6
:10087000D713C4F200031B78DBB203F02003002B74
:1008800021D048F23413C1F6FF731B78DBB21A464D
:1008900002F0EF0248F23413C1F6FF731A7048F207
:1008A0003113C1F6FF734FF000021A7044F6D613ED
:1008B000C4F2000344F6D612C4F200021278D2B297
:1008C00002F0EF021A70BD4680BC704780B500AFE1
:1008D0004FF0280000F0E8F94FF0030000F080F935
:1008E0004FF0050000F0E0F94FF0030000F078F958
:1008F0004FF00F0000F0D8F94FF0030000F070F94E
:100900004FF0010000F0D0F94FF0020000F068F95C
:100910004FF0050000F0C8F94FF0060000F042F873
:100920004FF00E0000F03EF84FF02C0000F03AF8C7
:100930004FF0080000F036F84FF0010000F032F8F8
:100940004FF00C0000F02EF84FF0030000F02AF8F2
:100950004FF0050000F0A8F980BD00BF80B500AFE2
:100960004FF00C0000F01EF848F21C13C1F6FF73A4
:100970004FF001021A7080BD80B500AF48F21D1320
:10098000C1F6FF731B78002B08D1FFF79FFF48F2D9
:100990001D13C1F6FF734FF001021A70FFF7DEFF5F
:1009A00080BD00BF80B584B000AF0346FB71FB790A
:1009B0004FEA1313FB7300F015F8FB7B03F00F03F2
:1009C000FB73FB7B184600F00BF9FB7903F00F0378
:1009D000FB73FB7B184600F003F907F11007BD46D7
:1009E00080BD00BF80B582B000AF4FF00003FB7147
:1009F00045F22013C4F2000345F22012C4F20002B3
:100A00001278D2B202F080021A7045F22213C4F2B8
:100A100000031B78DBB223F00F03FB7145F22213B6
:100A2000C4F20003FA7942F00F02D2B21A7045F212
:100A30002313C4F200031B78DBB223F00F03FB7116
:100A400045F22313C4F20003FA791A7045F2241315
:100A5000C4F200031B78DBB223F00F03FB7145F2F5
:100A60002413C4F20003FA791A7045F22013C4F279
:100A7000000345F22012C4F200021278D2B202F052
:100A8000DF021A7045F22013C4F2000345F220126F
:100A9000C4F200021278D2B242F04002D2B21A700E
:100AA0004FF0000000F024F945F22013C4F20003D7
:100AB00045F22012C4F200021278D2B242F01002C3
:100AC000D2B21A704FF0010000F012F945F2211372
:100AD000C4F200031B78FB7145F22013C4F200033B
:100AE00045F22012C4F200021278D2B202F0EF02F4
:100AF0001A70FB7903F00803FB7145F22013C4F26E
:100B0000000345F22012C4F200021278D2B242F081
:100B10001002D2B21A704FF0010000F0E9F845F26D
:100B20002013C4F2000345F22012C4F2000212782E
:100B3000D2B202F0EF021A70FB79002BB0D145F26D
:100B40002013C4F2000345F22012C4F2000212780E
:100B5000D2B202F0BF021A7045F22013C4F20003B1
:100B600045F22012C4F200021278D2B202F08002E2
:100B70001A7045F22213C4F200031B78DBB223F093
:100B80000F03FB7145F22213C4F20003FA791A70C5
:100B900045F22313C4F200031B78DBB223F00F03EA
:100BA000FB7145F22313C4F20003FA7942F00F02FD
:100BB000D2B21A7045F22413C4F200031B78DBB2E0
:100BC00023F00F03FB7145F22413C4F20003FA79FA
:100BD00042F00F02D2B21A7007F10807BD4680BD7D
:100BE00080B582B000AF0346FB7145F22013C4F21A
:100BF000000345F22012C4F200021278D2B202F0D1
:100C00009F021A7045F22013C4F2000345F220122D
:100C1000C4F200021278D2B202F0F0021A7045F269
:100C20002013C4F2000345F22012C4F2000212782D
:100C3000D1B2FA7941EA0202D2B242F01002D2B243
:100C40001A704FF0010000F053F845F22013C4F27F
:100C5000000345F22012C4F200021278D2B202F070
:100C6000EF021A7007F10807BD4680BD00000000C2
:100C70000230800803D000BF01380046FCD1704725
:100C8000EFF3108072B6704780F31088704700BF92
:100C900080B483B000AF0346FB7101BE07F10C07BF
:100CA000BD4680BC704700BF80B582B000AF7860A1
:100CB0000BE048F21013C1F6FF731B681846FFF7EC
:100CC000D7FF7B68A3F500437B607B68B3F5004FDB
:100CD000EFD848F20813C1F6FF731B687A6802FB6D
:100CE00003F31846FFF7C4FF07F10807BD4680BDB0
:100CF00080B582B000AF0346FB80FA8848F20C133F
:100D0000C1F6FF731B7803FB02F31846FFF7B0FF31
:100D100007F10807BD4680BD80B584B000AF03462B
:100D20003960FB714EF60853CEF200031B68FB607E
:100D3000FB791F2B07D9FB791F2B8CBF00230123C5
:100D40001846FFF7A5FFFB7903F01F0303F110031B
:100D50004FEA8302FB6813441B68BB60FB7903F016
:100D60001F0303F110034FEA8302FB6813443A6840
:100D70001A60BB68184607F11007BD4680BD00BF6A
:100D800080B582B000AF02460B46FA71BB71BB79E9
:100D9000072B07D9BB79072B8CBF002301231846EB
:100DA000FFF776FFFB791F2B07D9FB791F2B8CBF31
:100DB000002301231846FFF76BFFFB7903F01F03A5
:100DC00003F1604303F56443BA794FEA4212D2B2A9
:100DD0001A7007F10807BD4680BD00BF80B584B01A
:100DE00000AF0346FB71FB791F2B07D9FB791F2B43
:100DF0008CBF002301231846FFF74AFF4EF2001371
:100E0000CEF20003FB60FB7903F01F034FF00102F9
:100E100002FA03F31A46FB681A6007F11007BD4691
:100E200080BD00BF80B584B000AF0346FB71FB7985
:100E30001F2B07D9FB791F2B8CBF002301231846DA
:100E4000FFF726FF4EF28023CEF20003FB60FB7912
:100E500003F01F034FF0010202FA03F31A46FB6886
:100E60001A6007F11007BD4680BD00BF80B485B091
:100E700000AF786039607B68FB6007E0FB684FF08B
:100E800000021A70FB6803F10103FB603B68002B52
:100E90000CBF00230123DBB23A6802F1FF323A6053
:100EA000002BEBD107F11407BD4680BC704700BF93
:100EB00080B487B000AFF860B9607A60FB683B61CE
:100EC000BB687B610BE07B691A783B691A703B69F0
:100ED00003F101033B617B6903F101037B617B68E3
:100EE000002B0CBF00230123DBB27A6802F1FF3232
:100EF0007A60002BE7D107F11C07BD4680BC704724
:100F000080B485B000AF4FF000037B604FF000036A
:100F10003B6036E03B684FEA830303F190431B6874
:100F2000BB60BB68FB73BB6823F0FF03BB6018E0CA
:100F30007B684FEA430303F1904303F154031B78AA
:100F40001A46BB6813441A467B684FEA430303F111
:100F5000904303F154035B7813707B6803F1010342
:100F60007B60FB7B002B0CBF00230123DBB2FA7BF1
:100F700002F1FF32FA73002BDAD13B6803F101036F
:100F80003B603B68142BC5D907F11407BD4680BCF4
:100F9000704700BF80B584B000AF07F10803FB6065
:100FA00044F28000C4F2000040F23101C0F21B01A3
:100FB00000F03CFA44F20033C4F200034FF00202A6
:100FC0001A7044F20003C4F200034FF008021A70D2
:100FD00044F20023C4F200034FF003021A7044F2FB
:100FE000A163C4F2000340F20812C4F600121278A2
:100FF000D2B21A7044F22223C4F200034FF0080266
:101000001A8044F22023C4F2000341F251021A80F4
:101010004FF00003FB714FF01903BB601AE0FB793E
:10102000DBB24FEA4303DAB244F22523C4F20003F1
:101030001B78DBB203F0010342EA0303DBB203F0E7
:101040000303FB714FF07800FFF712FEBB6803F15A
:10105000FF33BB60FB681B68002B03D0FB79DBB25E
:10106000032BDCD144F20403C4F200034FF003026B
:101070001A7044F20503C4F200034FF001021A7023
:1010800044F20403C4F200034FF000021A7044F269
:101090000403C4F200034FF007021A7044F206037F
:1010A000C4F200034FF000021A7044F20803C4F2C5
:1010B00000034FF048021A7044F20403C4F2000324
:1010C0004FF000021A7044F20103C4F200034FF023
:1010D00002021A7044F2A233C4F2000344F2A232B4
:1010E000C4F200021278D2B242F00102D2B21A70F7
:1010F00007F11007BD4680BD80B400AF44F2AA33AB
:10110000C4F200034FF444721A8045F62003C4F27F
:1011100000034FF01E021A7045F62403C4F20003C8
:101120004FF01E021A7045F62803C4F200034FF078
:101130001E021A7045F62C03C4F200034FF01E0283
:101140001A7045F60013C4F200036FF03F021A70E4
:1011500045F60313C4F200034FF00C021A7045F673
:101160000813C4F200036FF03F021A7045F60B1328
:10117000C4F200034FF00C021A7045F67603C4F275
:1011800000034FF044021A70BD4680BC704700BF98
:1011900080B582B000AF72B644F60003C4F200031B
:1011A0004FF000021A70FFF7F5FE44F60003C4F298
:1011B00000036FF07F021A7047F21003C4F20003BD
:1011C0004FF000021A7047F22003C4F200034FF000
:1011D00000021A7045F67C03C4F200034FF00102CE
:1011E0001A7044F2E863C4F2000344F2E862C4F205
:1011F00000021278D2B242F00102D2B21A704FF05D
:101200000003FB7031E0FA7813464FEA43031344BE
:101210004FEA43031A4641F26073C0F200031344DD
:101220007B607B681A7859784FEA012141EA020213
:1012300099784FEA014141EA0202DB784FEA036301
:1012400043EA02031A467B6819795B794FEA032364
:1012500043EA01039BB210464FF000011A4600F02A
:10126000D3F9FB7803F10103FB70FB78062BCAD995
:10127000FFF746FE45F20020C4F200004FF00701E0
:10128000FFF7F4FD45F20820C4F200004FF007011B
:10129000FFF7ECFD45F21020C4F200004FF007010B
:1012A000FFF7E4FD45F21820C4F200004FF00701FB
:1012B000FFF7DCFD45F22020C4F200004FF00701EB
:1012C000FFF7D4FD45F22820C4F200004FF00701DB
:1012D000FFF7CCFD45F23020C4F2000040F240118F
:1012E000C4F600014FF00702FFF7E2FD45F260206F
:1012F000C4F2000040F24811C4F600014FF00602AB
:10130000FFF7D6FD45F27820C4F2000040F25011FC
:10131000C4F600014FF00702FFF7CAFD45F20303D0
:10132000C4F2010345F20302C4F201021278D2B200
:1013300042F00202D2B21A7045F21303C4F2010362
:1013400045F21302C4F201021278D2B242F0020254
:10135000D2B21A7044F2A033C4F2000344F2A032B5
:10136000C4F200021278D2B242F04002D2B21A7035
:1013700044F2C233C4F2000344F2C232C4F20002A7
:101380001278D2B242F01002D2B21A7045F2C210F4
:10139000C4F2000040F21811C4F600014FF0080238
:1013A000FFF786FD45F2F010C4F2000040F2201174
:1013B000C4F600014FF00A0200F05EF845F2221078
:1013C000C4F2000040F22C11C4F600014FF00802F4
:1013D00000F052F845F26010C4F2000040F23411FF
:1013E000C4F600014FF00A0200F046F8FFF784FE51
:1013F00044F2B030C4F2000044F2A031C4F2000163
:101400004FF00C0200F038F844F2B033C4F200039D
:1014100044F2B032C4F200021278D2B202F0FD02FD
:101420001A7007F10807BD4680BD00BF80B483B0C5
:1014300000AF786039603B68DAB27B681A707B680D
:1014400003F101037B603B684FEA13233B603B6879
:10145000DAB27B681A707B6803F101037B603B683A
:101460004FEA13233B603B68DAB27B681A7007F1DE
:101470000C07BD4680BC7047032A2DE9F0070BD846
:101480003AB1002311F803C000F803C001339342BE
:10149000F8D1BDE8F007704782180C46034603E018
:1014A00014F8011C03F8011C03F003061946A446B6
:1014B00001330134002EF3D11CF00304634608BF4E
:1014C000C1EB020C68D06542C4F1040A0CEB0507BD
:1014D00033464FEACA0A5CF805604FEAC408551A59
:1014E00008E057F8044F264604FA0AF449EA0404CF
:1014F000CC5004335C18032D26FA08F9A5F1040535
:101500000CEB0306EDDC002302E0F15CE154013357
:1015100019199142F9D3BCE753F8404C41F8404CBB
:1015200053F83C4C41F83C4C53F8384C41F8384C9B
:1015300053F8344C41F8344C53F8304C41F8304CAB
:1015400053F82C4C41F82C4C53F8284C41F8284CBB
:1015500053F8244C41F8244C53F8204C41F8204CCB
:1015600053F81C4C41F81C4C53F8184C41F8184CDB
:1015700053F8144C41F8144C53F8104C41F8104CEB
:1015800053F80C4C41F80C4C53F8084C41F8084CFB
:1015900053F8044C41F8044C1C460D46403340318E
:1015A000BCF13F0FACF1400CB6DC21462B46541B7E
:1015B0000FE051F8105C43F8105C51F80C5C43F8F4
:1015C0000C5C51F8085C43F8085C51F8045C43F883
:1015D000045C0F2C0D469C4601F1100103F1100331
:1015E000A4F11004E5DCCCEB0201002303E0EC588D
:1015F0004CF8034004335E19032903EB0C04A1F1FA
:101600000401F4DC7FE700BF032AC9B230B407D875
:1016100022B10023C15401339342FBD130BC704747
:1016200000EB020C034601E003F8011C03F0030485
:101630001A460133002CF7D14FF00133C2EB0C04F2
:1016400003FB01F31FE042F8403C42F83C3C42F807
:10165000383C42F8343C42F8303C42F82C3C42F8EA
:10166000283C42F8243C42F8203C42F81C3C42F81A
:10167000183C42F8143C42F8103C42F80C3C42F84A
:10168000083C42F8043C154640323F2CA4F140048B
:10169000D9DC2A46C5EB0C0407E042F8103C42F8BE
:1016A0000C3C42F8083C42F8043C154610320F2C22
:1016B000A4F11004F1DC2A46C5EB0C0501E042F868
:1016C000043C14460432032DA5F10405F7DC01E0C7
:1016D00004F8011B6445FBD3A0E700BF08B500F088
:1016E00017F8074800B10068064901B109680022EF
:1016F000FEF72CFD044B0BB1AFF30080FEE700BFFB
:10170000000000000000000000000000FEE70000F4
:1017100070B541F2987641F29875C0F20006C0F2B9
:101720000005761BB61006D0002455F8243001348D
:101730009847A642F9D841F2987541F2A076C0F2D6
:101740000005C0F20006761B00F020F8B61006D0A7
:10175000002455F8243001349847A642F9D870BDCA
:10176000C8490040140000510040200030510040A2
:10177000300000000140001000140140000800404B
:101780000140000A004C014000020000F8B500BF13
:10179000F8BC08BC9E46704731010000B90100004A
:1017A000F8B500BFF8BC08BC9E4670471D0100009C
:1017B00000000000C81700000080FF1F1801000093
:0817C0002800000000000000F9
:1017C8000000000000000000000000000000000011
:1017D8000000000000000000000000000000000001
:1017E80000000000000000000000000000000000F1
:1017F80000000000000000000000000000000000E1
:1018080000000000000000000000000000000000D0
:1018180000000000000000000000000000000000C0
:1018280000000000000000000000000000000000B0
:1018380000000000000000000000000000000000A0
:101848000000000000000000000000000000000090
:101858000000000000000000000000000000000080
:101868000000000000000000000000000000000070
:101878000000000000000000000000000000000060
:101888000000000000000000000000000000000050
:101898000000000000000000000000000000000040
:1018A8000000000000000000000000000000000030
:1018B8000000000000000000000000000000000020
:1018C8000000000000366E01C05D00001800000036
:0818D8000000E02E00000000FA
:040000030000019563
:00000001FF
